{
  "_format": "hh-sol-artifact-1",
  "contractName": "NftMarketplace",
  "sourceName": "contracts/NftMarketPlace.sol",
  "abi": [
    {
      "inputs": [
        {
          "internalType": "address",
          "name": "ethPriceFeed",
          "type": "address"
        }
      ],
      "stateMutability": "nonpayable",
      "type": "constructor"
    },
    {
      "inputs": [
        {
          "internalType": "address",
          "name": "nftAddress",
          "type": "address"
        },
        {
          "internalType": "uint256",
          "name": "tokenId",
          "type": "uint256"
        }
      ],
      "name": "NftMarketplace__AlreadyListed",
      "type": "error"
    },
    {
      "inputs": [],
      "name": "NftMarketplace__NoProceeds",
      "type": "error"
    },
    {
      "inputs": [],
      "name": "NftMarketplace__NotApprovedForMarketplace",
      "type": "error"
    },
    {
      "inputs": [
        {
          "internalType": "address",
          "name": "nftAddress",
          "type": "address"
        },
        {
          "internalType": "uint256",
          "name": "tokenId",
          "type": "uint256"
        }
      ],
      "name": "NftMarketplace__NotListed",
      "type": "error"
    },
    {
      "inputs": [],
      "name": "NftMarketplace__NotOwner",
      "type": "error"
    },
    {
      "inputs": [],
      "name": "NftMarketplace__PriceMustBeAboveZero",
      "type": "error"
    },
    {
      "inputs": [
        {
          "internalType": "address",
          "name": "nftAddress",
          "type": "address"
        },
        {
          "internalType": "uint256",
          "name": "tokenId",
          "type": "uint256"
        },
        {
          "internalType": "uint256",
          "name": "price",
          "type": "uint256"
        }
      ],
      "name": "NftMarketplace__PriceNotMet",
      "type": "error"
    },
    {
      "inputs": [],
      "name": "NftMarketplace__TokenNotSupported",
      "type": "error"
    },
    {
      "inputs": [],
      "name": "NftMarketplace__TransferFailed",
      "type": "error"
    },
    {
      "inputs": [],
      "name": "ReentrancyGuardReentrantCall",
      "type": "error"
    },
    {
      "anonymous": false,
      "inputs": [
        {
          "indexed": true,
          "internalType": "address",
          "name": "buyer",
          "type": "address"
        },
        {
          "indexed": true,
          "internalType": "address",
          "name": "nftAddress",
          "type": "address"
        },
        {
          "indexed": true,
          "internalType": "uint256",
          "name": "tokenId",
          "type": "uint256"
        },
        {
          "indexed": false,
          "internalType": "uint256",
          "name": "price",
          "type": "uint256"
        },
        {
          "indexed": false,
          "internalType": "address",
          "name": "paymentToken",
          "type": "address"
        }
      ],
      "name": "ItemBought",
      "type": "event"
    },
    {
      "anonymous": false,
      "inputs": [
        {
          "indexed": true,
          "internalType": "address",
          "name": "seller",
          "type": "address"
        },
        {
          "indexed": true,
          "internalType": "address",
          "name": "nftAddress",
          "type": "address"
        },
        {
          "indexed": true,
          "internalType": "uint256",
          "name": "tokenId",
          "type": "uint256"
        }
      ],
      "name": "ItemCanceled",
      "type": "event"
    },
    {
      "anonymous": false,
      "inputs": [
        {
          "indexed": true,
          "internalType": "address",
          "name": "seller",
          "type": "address"
        },
        {
          "indexed": true,
          "internalType": "address",
          "name": "nftAddress",
          "type": "address"
        },
        {
          "indexed": true,
          "internalType": "uint256",
          "name": "tokenId",
          "type": "uint256"
        },
        {
          "indexed": false,
          "internalType": "uint256",
          "name": "price",
          "type": "uint256"
        },
        {
          "indexed": false,
          "internalType": "address",
          "name": "paymentToken",
          "type": "address"
        }
      ],
      "name": "ItemListed",
      "type": "event"
    },
    {
      "anonymous": false,
      "inputs": [
        {
          "indexed": true,
          "internalType": "address",
          "name": "token",
          "type": "address"
        },
        {
          "indexed": true,
          "internalType": "address",
          "name": "priceFeed",
          "type": "address"
        },
        {
          "indexed": false,
          "internalType": "uint8",
          "name": "decimals",
          "type": "uint8"
        }
      ],
      "name": "TokenAdded",
      "type": "event"
    },
    {
      "anonymous": false,
      "inputs": [
        {
          "indexed": true,
          "internalType": "address",
          "name": "token",
          "type": "address"
        }
      ],
      "name": "TokenRemoved",
      "type": "event"
    },
    {
      "inputs": [],
      "name": "NATIVE_TOKEN",
      "outputs": [
        {
          "internalType": "address",
          "name": "",
          "type": "address"
        }
      ],
      "stateMutability": "view",
      "type": "function"
    },
    {
      "inputs": [
        {
          "internalType": "address",
          "name": "token",
          "type": "address"
        },
        {
          "internalType": "address",
          "name": "priceFeed",
          "type": "address"
        },
        {
          "internalType": "uint8",
          "name": "decimals",
          "type": "uint8"
        }
      ],
      "name": "addSupportedToken",
      "outputs": [],
      "stateMutability": "nonpayable",
      "type": "function"
    },
    {
      "inputs": [
        {
          "internalType": "address",
          "name": "nftAddress",
          "type": "address"
        },
        {
          "internalType": "uint256",
          "name": "tokenId",
          "type": "uint256"
        },
        {
          "internalType": "address",
          "name": "paymentToken",
          "type": "address"
        }
      ],
      "name": "buyItem",
      "outputs": [],
      "stateMutability": "payable",
      "type": "function"
    },
    {
      "inputs": [
        {
          "internalType": "address",
          "name": "nftAddress",
          "type": "address"
        },
        {
          "internalType": "uint256",
          "name": "tokenId",
          "type": "uint256"
        }
      ],
      "name": "cancelListing",
      "outputs": [],
      "stateMutability": "nonpayable",
      "type": "function"
    },
    {
      "inputs": [
        {
          "internalType": "address",
          "name": "nftAddress",
          "type": "address"
        },
        {
          "internalType": "uint256",
          "name": "tokenId",
          "type": "uint256"
        }
      ],
      "name": "getListing",
      "outputs": [
        {
          "components": [
            {
              "internalType": "uint256",
              "name": "price",
              "type": "uint256"
            },
            {
              "internalType": "address",
              "name": "seller",
              "type": "address"
            },
            {
              "internalType": "address",
              "name": "paymentToken",
              "type": "address"
            }
          ],
          "internalType": "struct NftMarketplace.Listing",
          "name": "",
          "type": "tuple"
        }
      ],
      "stateMutability": "view",
      "type": "function"
    },
    {
      "inputs": [
        {
          "internalType": "address",
          "name": "nftAddress",
          "type": "address"
        },
        {
          "internalType": "uint256",
          "name": "tokenId",
          "type": "uint256"
        },
        {
          "internalType": "address",
          "name": "targetToken",
          "type": "address"
        }
      ],
      "name": "getListingPriceInToken",
      "outputs": [
        {
          "internalType": "uint256",
          "name": "",
          "type": "uint256"
        }
      ],
      "stateMutability": "view",
      "type": "function"
    },
    {
      "inputs": [],
      "name": "getOwner",
      "outputs": [
        {
          "internalType": "address",
          "name": "",
          "type": "address"
        }
      ],
      "stateMutability": "view",
      "type": "function"
    },
    {
      "inputs": [
        {
          "internalType": "address",
          "name": "seller",
          "type": "address"
        },
        {
          "internalType": "address",
          "name": "token",
          "type": "address"
        }
      ],
      "name": "getProceeds",
      "outputs": [
        {
          "internalType": "uint256",
          "name": "",
          "type": "uint256"
        }
      ],
      "stateMutability": "view",
      "type": "function"
    },
    {
      "inputs": [
        {
          "internalType": "address",
          "name": "token",
          "type": "address"
        }
      ],
      "name": "getTokenInfo",
      "outputs": [
        {
          "components": [
            {
              "internalType": "bool",
              "name": "isSupported",
              "type": "bool"
            },
            {
              "internalType": "contract AggregatorV3Interface",
              "name": "priceFeed",
              "type": "address"
            },
            {
              "internalType": "uint8",
              "name": "decimals",
              "type": "uint8"
            }
          ],
          "internalType": "struct NftMarketplace.TokenInfo",
          "name": "",
          "type": "tuple"
        }
      ],
      "stateMutability": "view",
      "type": "function"
    },
    {
      "inputs": [
        {
          "internalType": "address",
          "name": "token",
          "type": "address"
        }
      ],
      "name": "isTokenSupportedPublic",
      "outputs": [
        {
          "internalType": "bool",
          "name": "",
          "type": "bool"
        }
      ],
      "stateMutability": "view",
      "type": "function"
    },
    {
      "inputs": [
        {
          "internalType": "address",
          "name": "nftAddress",
          "type": "address"
        },
        {
          "internalType": "uint256",
          "name": "tokenId",
          "type": "uint256"
        },
        {
          "internalType": "uint256",
          "name": "price",
          "type": "uint256"
        },
        {
          "internalType": "address",
          "name": "paymentToken",
          "type": "address"
        }
      ],
      "name": "listItem",
      "outputs": [],
      "stateMutability": "nonpayable",
      "type": "function"
    },
    {
      "inputs": [
        {
          "internalType": "address",
          "name": "token",
          "type": "address"
        }
      ],
      "name": "removeSupportedToken",
      "outputs": [],
      "stateMutability": "nonpayable",
      "type": "function"
    },
    {
      "inputs": [
        {
          "internalType": "address",
          "name": "nftAddress",
          "type": "address"
        },
        {
          "internalType": "uint256",
          "name": "tokenId",
          "type": "uint256"
        },
        {
          "internalType": "uint256",
          "name": "newPrice",
          "type": "uint256"
        },
        {
          "internalType": "address",
          "name": "newPaymentToken",
          "type": "address"
        }
      ],
      "name": "updateListing",
      "outputs": [],
      "stateMutability": "nonpayable",
      "type": "function"
    },
    {
      "inputs": [
        {
          "internalType": "address",
          "name": "token",
          "type": "address"
        }
      ],
      "name": "withdrawProceeds",
      "outputs": [],
      "stateMutability": "nonpayable",
      "type": "function"
    }
  ],
  "bytecode": "0x60a06040523461010f57604051601f61159f38819003918201601f19168301916001600160401b038311848410176100f95780849260209460405283398101031261010f57516001600160a01b0381169081900361010f5760016000553360805260405190606082016001600160401b038111838210176100f957604052600182526020820190815260408201601281526000805260036020526040600020925115159160ff845491610100600160a81b03905160081b16928160a81b905160a81b1693169060018060b01b031916171717905560405161148a9081610115823960805181818161016b0152818161046201526105890152f35b634e487b7160e01b600052604160045260246000fd5b600080fdfe6080604052600436101561001257600080fd5b6000803560e01c80631f69565f14610f3e578063259ca36514610bd757806331f7d96414610bbb5780635930a88c1461094757806362810c81146107c2578063632f9b6a146105fb578063763191901461056957806386136bb71461052a57806388700d1c14610491578063893d20e81461044c578063a71c505114610386578063b2ddee0614610226578063e4afec8e1461010e5763fd782d08146100b757600080fd5b3461010b57604036600319011261010b5760406100d2610fcd565b916100db610fe8565b9260018060a01b031681526002602052209060018060a01b03166000526020526020604060002054604051908152f35b80fd5b503461010b57606036600319011261010b57610128610fcd565b610130610fe8565b906044359160ff8316809303610222577f45a26a460d33c4b7f3733844536d895f16b0f87524ad613b4fda44911f96525790602090610199337f00000000000000000000000000000000000000000000000000000000000000006001600160a01b031614611143565b60018060a01b0316936040516101ae81611076565b6001815282810186815260408083018481526001600160a01b03909716808a5260038652818a2093518454935198516001600160b01b031990941660ff911515919091161760089890981b610100600160a81b03169790971760a89290921b60ff60a81b169190911790915551908152a380f35b8380fd5b503461010b57604036600319011261010b57610240610fcd565b6040516331a9108f60e11b81526024803560048301819052926001600160a01b03169190602090829081855afa90811561037b57849161034c575b506001600160a01b0316330361033d57808352600160205260408320828452602052604083206040516102ad81611076565b815480825260018301546001600160a01b039081166020840152600290930154909216604090910152156103285780835260016020526040832082845260205260006002604085208281558260018201550155337f9ba1a3cb55ce8d63d072a886f94d2a744f50cddf82128e897d0661f5ec6231588480a480f35b63369a879160e11b8352600452602452604490fd5b6304a4a9db60e51b8352600483fd5b61036e915060203d602011610374575b61036681836110a8565b810190611124565b3861027b565b503d61035c565b6040513d86823e3d90fd5b503461010b5761039536610ffe565b9260018060a09493941b038216808252600160205260408220848352602052604082206040516103c481611076565b815480825260018301546001600160a01b0390811660208401526002909301549092166040909101521561043557506001600160a01b03841681526003602052604081205460ff161561042657602061041e858585611184565b604051908152f35b630c7356ff60e01b8152600490fd5b63369a879160e11b82526004526024839052604490fd5b503461010b578060031936011261010b576040517f00000000000000000000000000000000000000000000000000000000000000006001600160a01b03168152602090f35b503461010b57604036600319011261010b5760406060916104b0610fcd565b6104b86110ca565b506001600160a01b031681526001602090815282822060243583529052206040516104e281611076565b815480825260018301546001600160a01b0390811660208085019182526002909501548216604094850190815284519384529051821694830194909452925190921690820152f35b503461010b57602036600319011261010b5760209060ff906040906001600160a01b03610555610fcd565b168152600384522054166040519015158152f35b503461010b57602036600319011261010b57610583610fcd565b6105b7337f00000000000000000000000000000000000000000000000000000000000000006001600160a01b031614611143565b6001600160a01b0316808252600360205260408220805460ff191690557f4c910b69fe65a61f7531b9c5042b2329ca7179c77290aa7e2eb3afa3c8511fd38280a280f35b503461010b5761060a36611038565b919260018060a01b0316918285526001602052604085208486526020526040852060405161063781611076565b815480825260018301546001600160a01b039081166020840152600290930154909216604090910152156107ab5761066d611243565b6040516331a9108f60e11b815260048101859052602081602481875afa9081156107a0578691610781575b506001600160a01b03163303610772576001600160a01b03811685526003602052604085205460ff1615610763578115610754578285526001602081815260408088208789528252808820859055858852918152818720868852815281872060020180546001600160a01b0319166001600160a01b039094169384179055815193845283019190915233917f4b3569112f949eb5abccc2f448b8f88b58a6a8d9bc127648ea07a021f964d7a691819081015b0390a46001815580f35b63096d7ecf60e01b8552600485fd5b630c7356ff60e01b8552600485fd5b6304a4a9db60e51b8552600485fd5b61079a915060203d6020116103745761036681836110a8565b38610698565b6040513d88823e3d90fd5b604485858563369a879160e11b8352600452602452fd5b503461010b57602036600319011261010b576107dc610fcd565b906107e5611243565b33815260026020526040812060018060a01b03831660005260205260406000205480156109385781809333825260026020526040822060018060a01b0382166000526020528160406000205560018060a01b031680156000146108b65750808092335af13d156108b1573d67ffffffffffffffff811161089d5760405190610877601f8201601f1916602001836110a8565b81528260203d92013e5b1561088e575b6001815580f35b63502c425d60e11b8152600490fd5b634e487b7160e01b83526041600452602483fd5b610881565b90506044602092604051948593849263a9059cbb60e01b845233600485015260248401525af190811561092d5782916108fe575b506108875763502c425d60e11b8152600490fd5b610920915060203d602011610926575b61091881836110a8565b8101906110e9565b386108ea565b503d61090e565b6040513d84823e3d90fd5b6333453e2160e11b8252600482fd5b503461010b5761095636611038565b919260018060a01b0316918285526001602052604085208486526020526040852060405161098381611076565b815480825260018301546001600160a01b039081166020840152600290930154909216604090910152610ba4576040516331a9108f60e11b815260048101859052602081602481875afa9081156107a0578691610b85575b506001600160a01b03163303610772576001600160a01b0381168086526003602052604086205460ff1615610b76578215610b675760405163020604bf60e21b815260048101869052602081602481885afa908115610b5c578791610b3d575b50306001600160a01b0390911603610b2e577f4b3569112f949eb5abccc2f448b8f88b58a6a8d9bc127648ea07a021f964d7a691610b2891600260405191610a8283611076565b8683526020830133815260408401918252888b52600160205260408b208a8c5260205260408b209351845560018060a01b03905116600184019060018060a01b03166bffffffffffffffffffffffff60a01b82541617905560018060a01b0390511691019060018060a01b03166bffffffffffffffffffffffff60a01b8254161790556040519182913395839092916020906040830194835260018060a01b0316910152565b0390a480f35b6313e7d28d60e01b8652600486fd5b610b56915060203d6020116103745761036681836110a8565b38610a3b565b6040513d89823e3d90fd5b63096d7ecf60e01b8652600486fd5b630c7356ff60e01b8652600486fd5b610b9e915060203d6020116103745761036681836110a8565b386109db565b604485858563c2f0d70960e01b8352600452602452fd5b503461010b578060031936011261010b57602090604051908152f35b50610be136610ffe565b909160018060a01b03169081845260016020526040842083855260205260408420604051610c0e81611076565b815480825260018301546001600160a01b03908116602084015260029093015490921660409091015215610f27576001600160a01b0381168085526003602052604085205490919060ff161561076357610c66611243565b82855260016020526040852084865260205260408520604051610c8881611076565b815480825260018301546001600160a01b03908116602084019081526002909401541660408301818152909190868303610eb7575050508051935b80610e0c5750833410610def575060018060a01b03815116865260026020526040862086805260205260408620610cfb848254611101565b90555b83865260016020526040862085875260205285600260408220828155826001820155015560018060a01b0390511685843b1561010b57604051632142170760e11b81526001600160a01b03929092166004830152336024830152604482018690528160648183885af180156107a057610db7575b50604080519283526001600160a01b03909116602083015233917fb6cb1aca667c257d2d8541b104eae07a4e749c66bbb2ca67a2cec1b07db7c4f1918190810161074a565b85610de77fb6cb1aca667c257d2d8541b104eae07a4e749c66bbb2ca67a2cec1b07db7c4f1939761074a936110a8565b959150610d72565b5163817ce9f160e01b875260048590526024869052604452606486fd5b6040516323b872dd60e01b8152336004820152306024820152604481018690529091506020816064818b865af1908115610eac578891610e8d575b5015610e7e5760018060a01b03825116875260026020526040872090875260205260408620610e77848254611101565b9055610cfe565b63502c425d60e11b8752600487fd5b610ea6915060203d6020116109265761091881836110a8565b38610e47565b6040513d8a823e3d90fd5b610f21928a52600360205260018060a01b0360408b205460081c169060018060a01b039051168a52600360205260ff60408b205460a81c16878b52600360205260018060a01b0360408c205460081c1691888c52600360205260ff60408d205460a81c16936112bd565b93610cc3565b604484848463369a879160e11b8352600452602452fd5b503461010b57602036600319011261010b576040606091610f5d610fcd565b610f656110ca565b506001600160a01b031681526003602052206040519060ff90610f8783611076565b54818116151592838152826040602083019260018060a01b038560081c168452019260a81c16825260405193845260018060a01b03905116602084015251166040820152f35b600435906001600160a01b0382168203610fe357565b600080fd5b602435906001600160a01b0382168203610fe357565b6060906003190112610fe3576004356001600160a01b0381168103610fe35790602435906044356001600160a01b0381168103610fe35790565b6080906003190112610fe3576004356001600160a01b0381168103610fe3579060243590604435906064356001600160a01b0381168103610fe35790565b6060810190811067ffffffffffffffff82111761109257604052565b634e487b7160e01b600052604160045260246000fd5b90601f8019910116810190811067ffffffffffffffff82111761109257604052565b604051906110d782611076565b60006040838281528260208201520152565b90816020910312610fe357518015158103610fe35790565b9190820180921161110e57565b634e487b7160e01b600052601160045260246000fd5b90816020910312610fe357516001600160a01b0381168103610fe35790565b1561114a57565b60405162461bcd60e51b81526020600482015260126024820152712737ba1031b7b73a3930b1ba1037bbb732b960711b6044820152606490fd5b60018060a01b031660005260016020526040600020906000526020526040600020604051916111b283611076565b815480845260018301546001600160a01b039081166020860152600290930154831660409094018481529092919091169081841461123c576000938452600360205260408085205491516001600160a01b039081168652818620549386529420546112399460a882811c60ff90811696600894851c84169690921c169390921c16906112bd565b90565b5050905090565b600260005414611254576002600055565b633ee5aeb560e01b60005260046000fd5b9060ff8091169116039060ff821161110e57565b60ff16604d811161110e57600a0a90565b8181029291811591840414171561110e57565b81156112a7570490565b634e487b7160e01b600052601260045260246000fd5b9192906001600160a01b03808216908316146113185761130c6112399561130661130061131296956112fa6112f461130697611377565b91611377565b9661128a565b91611279565b9061128a565b93611279565b9061129d565b50509060ff831660ff821681811460001461133557505050905090565b11156113505761134b6112399361131292611265565b611279565b61134b6113069161123994611265565b519069ffffffffffffffffffff82168203610fe357565b604051633fabe5a360e21b81529060a090829060049082906001600160a01b03165afa908115611448576000916113fb575b5060008113156113b65790565b60405162461bcd60e51b815260206004820152601760248201527f496e76616c69642070726963652066726f6d20666565640000000000000000006044820152606490fd5b905060a0813d60a011611440575b8161141660a093836110a8565b81010312610fe35761142781611360565b50611439608060208301519201611360565b50386113a9565b3d9150611409565b6040513d6000823e3d90fdfea264697066735822122079600048ccb8b4b216eaf72184c1cbd3c48c791ad80e5de683ff0c4171be656864736f6c634300081c0033",
  "linkReferences": {},
  "deployedLinkReferences": {}
}